:100000000C9441010C9472010C9472010C947201D5
:100010000C9472010C9472010C9472010C94720194
:100020000C9472010C9472010C9472010C94720184
:100030000C9472010C9472010C9472010C94720174
:100040000C9472010C9472010C9472010C94720164
:100050000C9472010C9472010C9472010C94800740
:100060000C9472010C944A070C9420070C947201B2
:100070000C9472010C9472010C9472010C94720134
:100080000C9472010C9472010C9472010C94720124
:100090000C9472010C9472010C9472010C94720114
:1000A0000C9472010C9472010C9472010C94720104
:1000B0000C9472010C9472010C9472010C947201F4
:1000C0000C9472010C9472010C9472010C947201E4
:1000D0000C9472010C9472010C9472010C947201D4
:1000E0000C9472010C948C030C949D020C94650288
:1000F0000C9482030C947E030C94CA070C9499030D
:100100000C946E030C9407020C946B030C945F0325
:100110000C9457020C9490030C9486030C9497044F
:100120000C949A030C943C040C94EA020C94340250
:100130000C9498040C94FC030C943C060C94CB0394
:100140000C9467030C9478030C9494030C9463034D
:100150000C9443020C949E030C9474030C94590366
:1001600000002100240027002A002D003000330069
:1001700001010000040107010A010000220025001E
:1001800028002B002E003100340002010000050180
:1001900008010B01000020002300260029002C008C
:1001A0002F003200000100000301060109010505CE
:1001B0000505070508080808020202020A0A0808DD
:1001C000040404040101010101010101030303030B
:1001D00003030303040707070C0C0C0C0C0C0C0C9A
:1001E0000202020206060606060606060B0B0B0BAB
:1001F0000B0B0B0B010210202008081020401020D0
:1002000040800201020108040201010204081020DA
:1002100040808040201008040201800402018040D8
:100220002010080402010804020101020408102041
:100230004080010204081020408000000A0B0209DF
:100240000C0D0E0807030401000000000000000070
:10025000000000000000000000000000000000009E
:10026000000000000000121110000000000000005B
:10027000000000000000000000000000000000007E
:10028000CA0711241FBECFEFD1E2DEBFCDBF00E011
:100290000CBF12E0A0E0B2E0EEEDFBE100E00BBF2E
:1002A00002C007900D92A837B107D9F723E0A8E75D
:1002B000B2E001C01D92AB3AB207E1F711E0C1E430
:1002C000D1E000E006C021970109802FFE010E94C5
:1002D000E50DC034D10780E00807A9F70E94840823
:1002E0000C94ED0D0C94000096E0899FD001112430
:1002F000AC5DBC4F90967C936E935F9791E0919626
:100300009C939197E0919103F091920390919003C7
:10031000992339F0309751F0811108C08091400342
:100320001994309719F05C968C91FACF0895CF927A
:10033000DF92EF92FF920F931F9396E0899FF00157
:100340001124EC5DFC4F11A2278D30A12130310525
:1003500051F178F02230310509F451C023303105D4
:1003600009F452C01F910F91FF90EF90DF90CF9052
:1003700008956623B9F361E070E00E9474012FB71D
:10038000F8948091830290918402A0918502B091AB
:1003900086022FBF80937C0390937D03A0937E03FE
:1003A000B0937F03DFCF9FB7F894C0908302D090C3
:1003B0008402E0908502F09086029FBF00917C034A
:1003C00010917D0320917E0330917F03C01AD10AE2
:1003D000E20AF30A00918E0310918F0330E020E0CF
:1003E0000C151D052E053F0550F462E070E01F91CD
:1003F0000F91FF90EF90DF90CF900C9474016111FA
:10040000B1CF63E070E0F3CF70E060E0F0CFAF9287
:10041000BF92CF92DF92EF92FF920F931F93CF93F1
:10042000DF936C017B018B01040F151FEB015E0153
:10043000AE18BF08C017D10759F06991D601ED91E8
:10044000FC910190F081E02DC6011995892B79F777
:10045000C501DF91CF911F910F91FF90EF90DF9039
:10046000CF90BF90AF900895FC01538D448D252F00
:1004700030E0842F90E0821B930B541710F0CF963E
:10048000089501970895FC01918D828D981761F070
:10049000A28DAE0FBF2FB11D5D968C91928D9F5F87
:1004A0009F73928F90E008958FEF9FEF0895FC0166
:1004B000918D828D981731F0828DE80FF11D858D19
:1004C00090E008958FEF9FEF0895FC01918D228DAC
:1004D000892F90E0805C9F4F821B91098F73992731
:1004E000089587E892E00E94650221E0892B09F4D3
:1004F00020E0822F0895FC01A48DA80FB92FB11D13
:10050000A35ABF4F2C91848D90E001968F73992749
:10051000848FA689B7892C93A089B1898C91837027
:1005200080648C93938D848D981306C00288F38920
:10053000E02D80818F7D80830895EF92FF920F934D
:100540001F93CF93DF93EC0181E0888F9B8D8C8D7F
:1005500098131AC0E889F989808185FF15C09FB773
:10056000F894EE89FF896083E889F9898081837036
:10057000806480839FBF81E090E0DF91CF911F91E5
:100580000F91FF90EF900895F62E0B8D10E00F5F06
:100590001F4F0F731127E02E8C8D8E110CC00FB6DC
:1005A00007FCFACFE889F989808185FFF5CFCE0174
:1005B0000E947B02F1CFEB8DEC0FFD2FF11DE35A72
:1005C000FF4FF0829FB7F8940B8FEA89FB898081F7
:1005D0008062CFCFCF93DF93EC01888D8823B9F071
:1005E000AA89BB89E889F9898C9185FD03C080813E
:1005F00086FD0DC00FB607FCF7CF8C9185FFF2CFBB
:10060000808185FFEDCFCE010E947B02E9CFDF9193
:10061000CF91089580E090E0892B29F00E9471022B
:1006200081110E94000080E090E0892B49F080E079
:1006300090E0892B29F00E94000081110E940000A7
:1006400080E090E0892B49F080E090E0892B29F050
:100650000E94000081110E94000080E090E0892B40
:1006600049F080E090E0892B29F00E940000811180
:100670000C94000008958150823108F05AC0E82F90
:10068000F0E08827E95BFC4F8F4F0C94E50D670382
:100690006B0359035F03630399036E0374037803C9
:1006A0007E03820386038C039003990394039A03C9
:1006B0009E03809180008F778093800008958091C1
:1006C00080008F7DF9CF80918000877FF5CF84B542
:1006D0008F7784BD089584B58F7DFBCF8091B00066
:1006E0008F778093B00008958091B0008F7DF9CF0F
:1006F000809190008F778093900008958091900072
:100700008F7DF9CF80919000877FF5CF8091A000F9
:100710008F778093A00008958091A0008F7DF9CFFE
:100720008091A000877FF5CF809120018F77809303
:1007300020010895809120018F7DF9CF80912001C3
:10074000877FF5CFCF93DF93282F30E0F901E65C68
:10075000FD4F8491F901EC50FE4FD491F901E2551F
:10076000FE4FC491CC23A1F081110E943B03EC2FDA
:10077000F0E0EE0FFF1FEC56FE4FA591B491EC9107
:10078000ED2381E090E009F480E0DF91CF910895BE
:1007900080E090E0FACF862F0C94A2031F93CF93B2
:1007A000DF93282F30E0F901E65CFD4F8491F901D9
:1007B000EC50FE4FD491F901E255FE4FC491CC2389
:1007C000A9F0162F81110E943B03EC2FF0E0EE0FF1
:1007D000FF1FE658FE4FA591B4918FB7F894EC91A6
:1007E000111108C0D095DE23DC938FBFDF91CF912C
:1007F0001F910895DE2BF8CF862F642F0C94CE0323
:10080000CF93DF9390E0FC01EC50FE4F2491825592
:100810009E4FFC0184918823C9F090E0880F991FB6
:10082000FC01E05AFE4FA591B491FC01E658FE4F41
:10083000C591D49161110DC09FB7F8948C9120950A
:1008400082238C938881282328839FBFDF91CF91B7
:100850000895623051F49FB7F8943C91822F8095AF
:1008600083238C93E8812E2BEFCF8FB7F894EC91F4
:100870002E2B2C938FBFEACF862F642F0C9400046D
:100880003FB7F8948091790290917A02A0917B020F
:10089000B0917C0226B5A89B05C02F3F19F00196A8
:1008A000A11DB11D3FBFBA2FA92F982F8827BC01CA
:1008B000CD01620F711D811D911D42E0660F771FF2
:1008C000881F991F4A95D1F708958F929F92AF92F2
:1008D000BF92CF92DF92EF92FF924B015C010E9498
:1008E00040046B017C010E9440046C197D098E0953
:1008F0009F09683E734081059105A8F321E0821AA3
:100900009108A108B10888EEC80E83E0D81EE11C4A
:10091000F11C81149104A104B10429F7FF90EF9018
:10092000DF90CF90BF90AF909F908F9008950895E3
:1009300090E080E00895FC0101900020E9F73197F4
:10094000AF01481B590BBC0183E993E00C940702EB
:100950008F929F92AF92BF920F931F93CF93DF938B
:10096000CDB7DEB7A1970FB6F894DEBF0FBECDBFEF
:1009700019A2423008F44AE08E010F5D1F4F842E09
:10098000912CB12CA12CA50194010E94C30DE62F3E
:10099000B901CA01EA30F4F4E05DD801EE938D01AB
:1009A000232B242B252B79F790E080E0109719F06A
:1009B000CD010E949B04A1960FB6F894DEBF0FBE36
:1009C000CDBFDF91CF911F910F91BF90AF909F90BE
:1009D0008F900895E95CE1CFCF93DF93EC0160E065
:1009E0008E810E94CE0361E08E810E94CE0360E082
:1009F0008E810E94CE038BE891E00197F1F7DF91A1
:100A0000CF910895CF92DF92EF92FF920F931F93B1
:100A1000CF93DF936C017C0187E0E80EF11CD0E0FE
:100A2000C0E0062F10E0B8010C2E02C07595679546
:100A30000A94E2F76170F70181917F010E94CE0371
:100A40002196C430D10579F7C601DF91CF911F916E
:100A50000F91FF90EF90DF90CF900C94EC04CF9229
:100A6000DF92EF92FF920F931F93CF93DF93EC01EE
:100A7000F62E642F8C810E94CE038D818F3F19F05A
:100A800060E00E94CE030F2D10E08F8584FF25C00B
:100A90006E0187E0C80ED11CF12CE12CB8010E2CA0
:100AA00002C0759567950A94E2F76170F60181912D
:100AB0006F010E94CE03FFEFEF1AFF0A88E0E816ED
:100AC000F10461F7CE01DF91CF911F910F91FF905B
:100AD000EF90DF90CF900C94EC04B80184E0759512
:100AE00067958A95E1F7CE010E9402056F2DCE0130
:100AF000DF91CF911F910F91FF90EF90DF90CF90FA
:100B00000C94020540E0682F83E993E00C942F05D4
:100B1000CF93DF93823029F49091A2039860909351
:100B2000A2038093A6031092A70380E48093A803F6
:100B300080E18093A90380E58093AA0361E080911E
:100B400097030E940004809198038F3F19F061E0A1
:100B50000E94000461E0809199030E940004C3E9AF
:100B6000D3E09E01235933408091A20384FD0BC042
:100B700084E090E021962817390744F461E08E81E3
:100B80000E940004EECF88E090E0F4CF8BE39DE07C
:100B90000197F1F760E0809197030E94CE0360E037
:100BA000809199030E94CE03809198038F3F19F0A2
:100BB00060E00E94CE038091A20384FD39C063E00F
:100BC00083E993E00E940205CBE4D6E4CE010197CD
:100BD000F1F763E083E993E00E9402052197F1F7C2
:100BE00063E083E993E00E94020583E592E00197C8
:100BF000F1F762E083E993E00E9402058091A2038D
:100C000080620E94820584E08093A3038CE00E94AE
:100C1000820581E00E9482058BE39FE10197F1F755
:100C200082E08093A40386E0DF91CF910C9482054B
:100C300080620E9482058BE496E40197F1F780912F
:100C4000A20380620E94820583E592E00197F1F79A
:100C50008091A20380620E948205D0CF9091A6036A
:100C6000891710F08FEF890FE82FF0E0ED56FC4F59
:100C7000848980680C94820541E00E942F0581E000
:100C800090E008954F925F926F927F928F929F9221
:100C9000AF92BF92CF92DF92EF92FF920F931F938A
:100CA000CF936B017C01742EAC019B010E94BE0DA1
:100CB000882399F08BE392E0CF911F910F91FF90E1
:100CC000EF90DF90CF90BF90AF909F908F907F90EC
:100CD0006F905F904F900C949B0446015701E894ED
:100CE000B7F82FEF3FEF4FE75FE7C501B4010E9470
:100CF000BE0D81110DC02FEF3FEF4FE75FE7C5013C
:100D0000B4010E94F40B18161CF48FE392E0D4CFC8
:100D10002FEF3FEF4FE75FE4C701B6010E944C0D94
:100D200018161CF483E492E0C7CF2FEF3FEF4FE794
:100D30005FECC701B6010E94F40B87FDF3CF20E002
:100D400030E0A901C701B6010E94F40B10E000E0F9
:100D500087FF0CC041E06DE283E993E00E942F051C
:100D6000F7FAF094F7F8F09401E010E0C0E060E0EA
:100D700070E080E09FE37C1641F020E030E040E24C
:100D800051E40E94F90BCF5FF6CFA70196010E94B4
:100D9000880B4B015C010E946B0C2B013C014AE06B
:100DA0000E94A804080F191FCC23C9F1C301B20186
:100DB0000E949A0C9B01AC01C501B4010E94870BF3
:100DC0004B015C0141E06EE283E993E00E942F0554
:100DD0000F5F1F4FC15018F120E030E040E251E4B6
:100DE000C501B4010E94510D2B013C010E946B0C06
:100DF0004B01B12CA12C4AE0C501B4010E94A8040A
:100E0000080F191FC501B4010E949A0C9B01AC0187
:100E1000C301B2010E94870B4B015C01DBCFC8010B
:100E2000CF911F910F91FF90EF90DF90CF90BF90E7
:100E3000AF909F908F907F906F905F904F900895AC
:100E40001F920F920FB60F9211240BB60F922F9391
:100E50003F934F935F936F937F938F939F93AF9342
:100E6000BF93EF93FF9387E892E00E947B02FF918C
:100E7000EF91BF91AF919F918F917F916F915F9112
:100E80004F913F912F910F900BBE0F900FBE0F907F
:100E90001F9018951F920F920FB60F9211240BB648
:100EA0000F922F938F939F93EF93FF93E09197026D
:100EB000F09198028081E0919D02F0919E0282FD66
:100EC0001DC090818091A0028F5F8F732091A1023D
:100ED000821741F0E091A002F0E0E957FD4F958FB5
:100EE0008093A002FF91EF919F918F912F910F908E
:100EF0000BBE0F900FBE0F901F9018958081F2CF00
:100F00001F920F920FB60F9211242F933F938F933E
:100F10009F93AF93BF938091830290918402A0919D
:100F20008502B09186023091780223E0230F2D379D
:100F300058F50196A11DB11D20937802809383027C
:100F400090938402A0938502B093860280917902E7
:100F500090917A02A0917B02B0917C020196A11D32
:100F6000B11D8093790290937A02A0937B02B09393
:100F70007C02BF91AF919F918F913F912F910F90E4
:100F80000FBE0F901F90189526E8230F0296A11D03
:100F9000B11DD2CF10928A021092890288EE93E09E
:100FA000A0E0B0E080938B0290938C02A0938D021E
:100FB000B0938E0287E192E090938802809387023B
:100FC00085EC90E0909394028093930284EC90E0FF
:100FD000909396028093950280EC90E09093980213
:100FE0008093970281EC90E090939A02809399020B
:100FF00082EC90E090939C0280939B0286EC90E0C0
:1010000090939E0280939D021092A0021092A102E2
:101010001092A2021092A3021092960310929503CE
:1010200083E392E0909394038093930386E3809309
:1010300097038FEF8093980387E38093990388E366
:1010400080939A0389E380939B038AE380939C03B4
:101050008BE380939D0310929E0310929F03109246
:10106000A0031092A1031092A20381E00E948805C0
:101070001092260310922A031092290310922B0338
:1010800089E292E09093250380932403E0E4F3E067
:101090001082148213821582369683E0EC37F807AB
:1010A000B9F783E092E0909387038093860380E012
:1010B00092E0909389038093880384E080938A036D
:1010C00083E080938B0387E092E090938503809385
:1010D00084038AE090E090938D0380938C0384EFE7
:1010E00091E090938F0380938E031092920310925D
:1010F0009103109280031092810310928203109248
:101100008303109290030895789484B5826084BD1F
:1011100084B5816084BD85B5826085BD85B58160FB
:1011200085BD80916E00816080936E001092810079
:101130008091810082608093810080918100816034
:1011400080938100809180008160809380008091F5
:10115000B10084608093B1008091B0008160809381
:10116000B000809191008260809391008091910005
:1011700081608093910080919000816080939000C5
:101180008091A10082608093A1008091A100816084
:101190008093A1008091A00081608093A000809145
:1011A00021018260809321018091210181608093DF
:1011B00021018091200181608093200180917A003B
:1011C000846080937A0080917A00826080937A00B4
:1011D00080917A00816080937A0080917A008068A3
:1011E00080937A001092C100E0919702F0919802EA
:1011F00082E08083E0919302F09194021082E0916A
:101200009502F09196028FEC808310929F02E091FC
:101210009B02F0919C0286E08083E0919902F0911C
:101220009A02808180618083E0919902F0919A0214
:10123000808188608083E0919902F0919A02808198
:1012400080688083E0919902F0919A0280818F7D7D
:10125000808361E086E00E94000461E085E00E94F6
:10126000000460E086E00E94CE0360E085E00E941A
:10127000CE0382E00E94880580E00E942E0660E096
:1012800085E30E94000461E084E30E94000460E0C2
:1012900084E00E94000461E083E00E94000460E0BA
:1012A00080E40E940004412C512C32014394CC2450
:1012B000CA94DC2C56E0252E62E4362E81E0809321
:1012C00090038FB7F894409183025091840260910B
:1012D0008502709186028FBF809180039091810377
:1012E000A0918203B0918303481B590B6A0B7B0BBF
:1012F00080918C0390918D03B0E0A0E08417950756
:10130000A607B70708F0AEC1C0E080918A03C817EE
:1013100060F4E0918603F0918703EC0FF11D62E029
:1013200080810E940004CF5FF0CF912C80918B03CD
:10133000981608F05FC0092D10E0E0918803F09145
:101340008903E00FF11F61E080810E940004E091B9
:101350008803F0918903E00FF11F60E080810E9413
:10136000CE03D301C201092C04C0880F991FAA1F04
:10137000BB1F0A94D2F75C017C01E094F094812CAD
:1013800080918A038816F8F4C82DD0E0E091860396
:10139000F0918703EC0FFD1F80810E94A203249629
:1013A000CC0FDD1FCC5DDC4F892B41F48881998106
:1013B0008A299B29998388838394E2CF88819981A4
:1013C0008E219F21F7CFE0918803F0918903E00FF0
:1013D000F11F61E080810E94CE038091880390918B
:1013E0008903080F191F60E0F80180810E94000442
:1013F00093949CCFC4E2D3E0FE01878D90A1892B0A
:1014000021F4148ED68EC58E11A2369683E0E03676
:10141000F80799F710E080918A03181708F052C076
:1014200000E0E12EF12CEE0CFF1CF701E45DFC4F17
:101430007F0120918B03021708F042C0F701608101
:101440007181002E02C0769567950A94E2F7129F8B
:1014500090011124200F311DE4E2F3E080E0458D7E
:10146000568D2417350709F450C18F5F36968A30A0
:10147000B1F760FF23C0E4E2F3E090E080E0448D48
:10148000411117C0E0918403F0918503E20FF31F2F
:101490006081289EF001299EF00D1124EC5DFC4F27
:1014A000648F368F258F10A2178E61E00E949701FE
:1014B00005C0019636968A30910509F70F5FB9CFBE
:1014C0001F5FA9CF80E099A19111892F2696F3E0A3
:1014D000C036DF07C1F79FB7F8944091830250915F
:1014E000840260918502709186029FBF40938003C1
:1014F000509381036093820370938303882309F4DC
:10150000B1C08091810290918202209145032223F3
:1015100009F4A8C0209143033091440321303105E0
:1015200009F0A0C02091400321119FC060E086E037
:101530000E94CE0360E085E00E94CE03809181028C
:1015400090918202049731F580917D02813309F0F8
:1015500096C080917E02893309F091C080917F020C
:10156000803309F08CC080918002853309F087C0F8
:1015700061E085E00E94CE0368EE73E080E090E0D9
:101580000E94650460E085E00E94CE031092820212
:101590001092810264E670E080E090E00E946504B1
:1015A00085E30E94A20361E0892B09F460E084E3F3
:1015B0000E94CE0384E00E94A20361E0019709F03B
:1015C00060E083E00E94CE0380917B00886080937E
:1015D0007B0030927C0080917A00806480937A0056
:1015E00080917A0086FDFCCF80917800609179002F
:1015F000762F682F072E000C880B990B0E949C0CED
:1016000020E038ED4FE156E40E94F90B20E030E491
:101610004CE955E40E94510D4B015C0120E030E0A3
:1016200040EA51E40E944C0D87FD3EC020E030E0CE
:1016300040EF51E4C501B4010E94F40B1816A4F167
:1016400080E00E942E0642E0C501B4010E944206DD
:1016500081E00E942E0687E492E00E949B040E9493
:101660000A032CCE1092900361CFFC01E358FD4F8A
:1016700020830196909382028093810257CF61E08C
:1016800086E00E94CE0368EE73E080E090E00E9466
:10169000650460E086E00E94CE0368EE73E080E0BF
:1016A00090E00E94650472CF20E030E040EA51E40F
:1016B000C501B4010E94F40B87FF0EC080E00E94B8
:1016C0002E0642E0C501B4010E94420681E00E945C
:1016D0002E0687E592E0C1CF20E030E040EF51E4F4
:1016E000C501B4010E944C0D18160CF0B8CF80E073
:1016F0000E942E0642E0C501B4010E94420681E02C
:101700000E942E0687E692E0A8CF6170CFCE505897
:10171000BB27AA270E949F0B0C94120D0E94040D58
:1017200038F00E940B0D20F039F49F3F19F426F495
:101730000C94010D0EF4E095E7FB0C94FB0CE92FE3
:101740000E94230D58F3BA176207730784079507A1
:1017500020F079F4A6F50C94450D0EF4E0950B2ECF
:10176000BA2FA02D0B01B90190010C01CA01A001F3
:101770001124FF27591B99F0593F50F4503E68F14E
:101780001A16F040A22F232F342F4427585FF3CF8F
:10179000469537952795A795F0405395C9F77EF460
:1017A0001F16BA0B620B730B840BBAF09150A1F0A9
:1017B000FF0FBB1F661F771F881FC2F70EC0BA0F2F
:1017C000621F731F841F48F4879577956795B795B7
:1017D000F7959E3F08F0B0CF9395880F08F09927B2
:1017E000EE0F9795879508950E94D70C08F481E035
:1017F00008950E940D0C0C94120D0E940B0D58F0D0
:101800000E94040D40F029F45F3F29F00C94FB0C7A
:1018100051110C94460D0C94010D0E94230D68F398
:101820009923B1F3552391F3951B550BBB27AA2799
:1018300062177307840738F09F5F5F4F220F331FD3
:10184000441FAA1FA9F335D00E2E3AF0E0E832D09B
:1018500091505040E695001CCAF72BD0FE2F29D09E
:10186000660F771F881FBB1F261737074807AB0770
:10187000B0E809F0BB0B802DBF01FF2793585F4FE5
:101880003AF09E3F510578F00C94FB0C0C94460DF9
:101890005F3FE4F3983ED4F3869577956795B795C7
:1018A000F7959F5FC9F7880F911D9695879597F9D2
:1018B0000895E1E0660F771F881FBB1F621773074B
:1018C0008407BA0720F0621B730B840BBA0BEE1F60
:1018D00088F7E09508950E942B0D88F09F5798F0A7
:1018E000B92F9927B751B0F0E1F0660F771F881F25
:1018F000991F1AF0BA95C9F714C0B13091F00E943F
:10190000450DB1E008950C94450D672F782F882779
:10191000B85F39F0B93FCCF3869577956795B39565
:10192000D9F73EF490958095709561957F4F8F4FD4
:101930009F4F0895E89409C097FB3EF490958095D9
:10194000709561957F4F8F4F9F4F9923A9F0F92F85
:1019500096E9BB279395F695879577956795B79503
:10196000F111F8CFFAF4BB0F11F460FF1BC06F5FE9
:101970007F4F8F4F9F4F16C0882311F096E911C0FB
:10198000772321F09EE8872F762F05C0662371F01C
:1019900096E8862F70E060E02AF09A95660F771F30
:1019A000881FDAF7880F9695879597F90895990F0C
:1019B0000008550FAA0BE0E8FEEF16161706E80719
:1019C000F907C0F012161306E407F50798F0621B3A
:1019D000730B840B950B39F40A2661F0232B242B0F
:1019E000252B21F408950A2609F4A140A6958FEF2E
:1019F000811D811D089597F99F6780E870E060E080
:101A000008959FEF80EC089500240A941616170697
:101A100018060906089500240A94121613061406DF
:101A200005060895092E0394000C11F4882352F042
:101A3000BB0F40F4BF2B11F460FF04C06F5F7F4FFA
:101A40008F4F9F4F089557FD9058440F551F59F0E1
:101A50005F3F71F04795880F97FB991F61F09F3F9B
:101A600079F087950895121613061406551FF2CFC4
:101A70004695F1DF08C0161617061806991FF1CF14
:101A800086957105610508940895E894BB2766273B
:101A90007727CB0197F908950E94D70C08F48FEFB0
:101AA00008950E94640D0C94120D0E94040D38F0EC
:101AB0000E940B0D20F0952311F00C94FB0C0C945C
:101AC000010D11240C94460D0E94230D70F3959F77
:101AD000C1F3950F50E0551F629FF001729FBB2725
:101AE000F00DB11D639FAA27F00DB11DAA1F649FC1
:101AF0006627B00DA11D661F829F2227B00DA11D74
:101B0000621F739FB00DA11D621F839FA00D611DF9
:101B1000221F749F3327A00D611D231F849F600D1A
:101B2000211D822F762F6A2F11249F5750409AF043
:101B3000F1F088234AF0EE0FFF1FBB1F661F771FCF
:101B4000881F91505040A9F79E3F510580F00C949A
:101B5000FB0C0C94460D5F3FE4F3983ED4F386955E
:101B600077956795B795F795E7959F5FC1F7FE2B3A
:101B7000880F911D9695879597F908950E94D70C27
:101B8000880B990B0895A1E21A2EAA1BBB1BFD011D
:101B90000DC0AA1FBB1FEE1FFF1FA217B307E4074C
:101BA000F50720F0A21BB30BE40BF50B661F771FA4
:101BB000881F991F1A9469F7609570958095909584
:101BC0009B01AC01BD01CF010895EE0FFF1F881FDF
:0E1BD0008BBF0790F691E02D1994F894FFCF8B
:101BDE000D0C0B0A090807313233343536373839D4
:101BEE002A3023000000009D0207023402EA02653B
:101BFE000243025702000000003C04FC03CB03002A
:101C0E000000003C060702980497046E616E00699E
:101C1E006E66006F766600536963616B6C696B204C
:101C2E006E6F726D616C00536963616B6C696B20D2
:101C3E0020647573756B00536963616B6C696B20FF
:081C4E0079756B73656B0000F2
:00000001FF
